:060000000A128A110C280F
:10000800FE00030EF0000A08F1000A168A11542EA9
:100018000A128A110F288313C930FD000730FE0029
:10002800FA30FF00C43084000A168A1145260A12E5
:100038008A117030FD001630FE001230FF006C305F
:1000480084000A168A1145260A128A110A168A118C
:1000580010260A128A11FA000A168A1111260A12A3
:100068008A11FB00A0308400C4300A168A111D26AC
:100078000A128A11633084006C300A168A111D2610
:100088000A128A1183010A128A114A280A168A1149
:10009800DF260A128A1101300A128A1568220A120A
:1000A8008A1180300A128A1568220A128A110D30C4
:1000B8000A168A119B260A128A111A308312031310
:1000C800CC005E30CB006D30CA00CA0B6928CB0B60
:1000D8006928CC0B6928702801300A128A15682211
:1000E8000A128A11002C00300A168A1155270A12A2
:1000F8008A11730883160313BF007208BE00043008
:100108000A168A1155270A128A11730883160313CF
:10011800BD007208BC000230C4000030C500002CCD
:100128003F0883120313A800831603133E088312A3
:100138000313A7000A128A159D250A128A11033093
:1001480083160313C4000030C500002C4203031DAE
:10015800AE28AF28FB2BC201403083120313A9003D
:100168009C30A8003F30A700FB30A600831603137D
:100178003C08F2003D08F3000030F31BFF30F400A8
:10018800F50001300A128A150E230A128A11750821
:1001980083120313AD007408AC007308AB00720837
:1001A800AA000A128A1118240A128A118312031348
:1001B8002908D0002808CF002708CE002608CD003F
:1001C8004130F5002030F4000030F3000030F20038
:1001D8005008F9004F08F8004E08F7004D08F600DF
:1001E8000A128A15C8230A128A1175088312031382
:1001F800D4007408D3007308D2007208D1005408E0
:10020800AD005308AC005208AB005108AA004230B8
:10021800A900C830A8000030A7000030A6000A12C4
:100228008A1118240A128A11831203132908C30099
:100238002808C2002708C1002608C0000A128A152B
:10024800CC200A128A11831203134108E0004008E7
:10025800DF000A30A0000030A100E830F2000330CF
:10026800F3006008F5005F08F4000A128A1565209B
:100278000A128A11730883120313A3007208A200DA
:100288000A128A150A200A128A11831203132108F6
:10029800DC002008DB000A30A0000030A100643038
:1002A800F2000030F3006008F5005F08F4000A125D
:1002B8008A1565200A128A11730883120313A30092
:1002C8007208A2000A128A150A200A128A118312D9
:1002D80003132108DE002008DD000A30A0000030EA
:1002E800A1000A30F2000030F3006008F5005F0852
:1002F800F4000A128A1565200A128A1173088312FB
:100308000313A3007208A2000A128A150A200A120F
:100318008A11831203132108D6002008D5000A3059
:10032800A0000030A1006008A3005F08A2000A1224
:100338008A150A200A128A11831203132108D80089
:100348002008D70080300A128A1568220A128A11FA
:1003580002300A168A119B260A128A118312031385
:100368006A08803AFF0080307F02031DBD295030A3
:1003780069020318C029C129C829831203136A080E
:10038800E2006908E100622B831203136A08803ACD
:10039800FF0080307F02031DD32951306902031CFE
:1003A800D629D729F129831203136A08803AFF0056
:1003B80080307F02031DE229643069020318E529B1
:1003C800E629F129831203136908EC3EE1006A0863
:1003D8000318013EFF3EE200622B831203136A08F2
:1003E800803AFF0080307F02031DFC2965306902D6
:1003F800031CFF29002A1A2A831203136A08803A69
:10040800FF0080307F02031D0B2A78306902031831
:100418000E2A0F2A1A2A831203136908D83EE1000C
:100428006A080318013EFF3EE200622B83120313A1
:100438006A08803AFF0080307F02031D252A793040
:100448006902031C282A292A432A831203136A08EB
:10045800803AFF0080307F02031D342A8C30690205
:100468000318372A382A432A831203136908C43E1B
:10047800E1006A080318013EFF3EE200622B831286
:1004880003136A08803AFF0080307F02031D4E2A5A
:100498008D306902031C512A522A6C2A83120313D5
:1004A8006A08803AFF0080307F02031D5D2AA03071
:1004B80069020318602A612A6C2A831203136908E7
:1004C800B03EE1006A080318013EFF3EE200622BDD
:1004D800831203136A08803AFF0080307F02031DED
:1004E800772AA1306902031C7A2A7B2A952A83126B
:1004F80003136A08803AFF0080307F02031D862AB2
:10050800B43069020318892A8A2A952A83120313A8
:1005180069089C3EE1006A080318013EFF3EE200BC
:10052800622B831203136A08803AFF0080307F022F
:10053800031DA02AB5306902031CA32AA42ABE2AD7
:10054800831203136A08803AFF0080307F02031D7C
:10055800AF2AC83069020318B22AB32ABE2A831206
:1005680003136908883EE1006A080318013EFF3E4C
:10057800E200622B831203136A08803AFF0080307E
:100588007F02031DC92AC9306902031CCC2ACD2A5F
:10059800E72A831203136A08803AFF0080307F023B
:1005A800031DD82ADC3069020318DB2ADC2AE72A73
:1005B800831203136908743EE1006A080318013EB8
:1005C800FF3EE200622B831203136A08803AFF00A1
:1005D80080307F02031DF22ADD306902031CF52AF0
:1005E800F62A102B831203136A08803AFF00803022
:1005F8007F02031D012BF03069020318042B052B21
:10060800102B831203136908603EE1006A0803187F
:10061800013EFF3EE200622B831203136A08803A10
:10062800FF0080307F02031D1B2BF1306902031C81
:100638001E2B1F2B392B831203136A08803AFF00E5
:1006480081307F02031D2A2B0430690203182D2BE9
:100658002E2B392B8312031369084C3EE1006A08DC
:100668000318013EFF3EE200622B831203136A085F
:10067800803AFF0081307F02031D442B0530690258
:10068800031C472B482B622B831203136A08803AFA
:10069800FF0081307F02031D532B183069020318B5
:1006A800562B572B622B831203136908383EE1003F
:1006B8006A080318013EFF3EE200622B831203130F
:1006C8006208A7006108A6000A128A1544210A12C6
:1006D8008A110B300A168A119B260A128A11C03019
:1006E8000A128A1568220A128A1116300A168A1105
:1006F8009B260A128A11831203135B08303E0A12E2
:100708008A15C2210A128A11831203135D08303E2A
:100718000A128A15C2210A128A111D300A168A1174
:100728009B260A128A11831203135508303E0A12B7
:100738008A15C2210A128A11831203135708303E00
:100748000A128A15C2210A128A11DF300A128A1582
:10075800C2210A128A111F300A168A119B260A1210
:100768008A11831203135C08A1005B08A0000A30F9
:10077800A2000030A3000A168A1105270A128A115E
:10078800831203135D082007D9005E0803185E0A68
:100798002107DA006208F3006108F2000A128A15DC
:1007A80000200A128A11831203135A08F300590809
:1007B800F2000A128A1500200A128A110D308312DB
:1007C8000313CB00FB30CA00CA0BE82BCB0BE82B7A
:1007D8000D3083120313CC00AF30CB00B530CA0004
:1007E800CA0BF42BCB0BF42BCC0BF42BFB2B831663
:1007F8000313C401C501002C831603134508003AEE
:100808000319072C002C4408003A0319002C013A5C
:1008180003197728033A03199428013A0319AA28D7
:10082800002C0A128A110C28831203132908803914
:10083800B3002908AE002E07B900A81F242C252CC8
:10084800262C3914390803192A2C2B2C3A2C390A4E
:10085800031D2F2C302C382C0030A9000030A800A4
:100868000030A7000030A600A817422C0030A900CD
:100878000030A8000030A7000030A6002D088039FD
:10088800FF007F08B3062D08AE002E07B400AC1F8A
:100898004E2C4F2C502C341434080319542C552C3E
:1008A800642C340A031D592C5A2C622C0030AD00DC
:1008B8000030AC000030AB000030AA00AC176C2C44
:1008C8000030AD000030AC000030AB000030AA00B2
:1008D80034080319702C712C762C3908031D752CDB
:1008E800762C7F2C0030A9000030A8000030A7002B
:1008F8000030A6005C2F2608F2002C080A168A1180
:100908002C270A128A11730883120313BF00720876
:10091800BE003E08AE00AF01B001B1013108B80019
:100928003008B7002F08B6002E08B5003F08AE0003
:10093800AF01B001B1013108BD003008BC002F087B
:10094800BB002E08BA002708F2002B080A168A11E5
:100958002C270A128A11730883120313BF00720826
:10096800BE003E08AE00AF01B001B1012E08B507C8
:100978002F0803110318013E0319C32CB6073008CA
:1009880003110318013E0319CA2CB70731080311D4
:100998000318013E0319D12CB8073F08AE00AF0178
:1009A800B001B1012E08BA072F0803110318013E40
:1009B8000319DF2CBB07300803110318013E031984
:1009C800E62CBC07310803110318013E0319ED2C6E
:1009D800BD072808F2002A080A168A112C270A12CD
:1009E8008A11730883120313BF007208BE003E0801
:1009F800AE00AF01B001B1012E08B5072F080311F1
:100A08000318013E0319092DB6073008031103180E
:100A1800013E0319102DB707310803110318013ED1
:100A28000319172DB8073F08AE00AF01B001B10197
:100A38002E08BA072F0803110318013E0319252DA4
:100A4800BB07300803110318013E03192C2DBC07FE
:100A5800310803110318013E0319332DBD0708306F
:100A6800AE000310B50DB60DB70DB80DAE0B352D94
:100A78002708F2002A080A168A112C270A128A1156
:100A8800730883120313BF007208BE003E08AE004D
:100A98003F08AF00B001B1012E08B5072F080311B8
:100AA8000318013E0319592DB6073008031103181E
:100AB800013E0319602DB707310803110318013EE1
:100AC8000319672DB8072608F2002B080A168A11A1
:100AD8002C270A128A11730883120313BF007208A5
:100AE800BE003E08AE003F08AF00B001B1012E08BD
:100AF800B5072F0803110318013E0319842DB60703
:100B0800300803110318013E03198B2DB70731086C
:100B180003110318013E0319922DB8070830AE00DF
:100B28000310B50DB60DB70DB80DAE0B942D2608F4
:100B3800F2002A080A168A112C270A128A11730849
:100B480083120313BF007208BE003E08AE003F08C0
:100B5800AF00B001B1012E08B5072F080311031823
:100B6800013E0319B82DB607300803110318013EDA
:100B78000319BF2DB707310803110318013E0319E4
:100B8800C62DB8072708F2002C080A168A112C2748
:100B98000A128A11730883120313BF007208BE0079
:100BA8003E08AE003F08AF00B001B1012E08BA07F9
:100BB8002F0803110318013E0319E32DBB07300862
:100BC80003110318013E0319EA2DBC07310803116C
:100BD8000318013E0319F12DBD072808F2002B0860
:100BE8000A168A112C270A128A1173088312031312
:100BF800BF007208BE003E08AE003F08AF00B0015B
:100C0800B1012E08BA072F0803110318013E031972
:100C18000E2EBB07300803110318013E0319152EC9
:100C2800BC07310803110318013E03191C2EBD0728
:100C38002808F2002C080A168A112C270A128A1191
:100C4800730883120313BF007208BE003E08AE008B
:100C58003F08AF00B001B10108300310AE0DAF0D71
:100C6800B00DB10DFF3E031D312E2E08BA072F0817
:100C780003110318013E0319422EBB073008031164
:100C88000318013E0319492EBC0731080311031844
:100C9800013E0319502EBD073508AE003608AF00D7
:100CA8003708B0003808B10018300310B10CB00C88
:100CB800AF0CAE0CFF3E031D592E2E08BA072F08A5
:100CC80003110318013E03196A2EBB0730080311EC
:100CD8000318013E0319712EBC07310803110318CC
:100CE800013E0319782EBD070830AE000310B50D7C
:100CF800B60DB70DB80DAE0B7A2E39083407AE0015
:100D0800AF01AF0D2E08823EBE002F080318013E2A
:100D1800FF3EBF00AC2E0130AE000310BA0DBB0D74
:100D2800BC0DBD0DAE0B912EB81F9B2E9C2E9D2E7B
:100D38003A140130AE000310B50DB60DB70DB80D5D
:100D4800AE0B9F2EFF30BE070318BF0AFF30BF0748
:100D5800BC1FAF2EB02E8F2EB401B81FB42EB52EE7
:100D6800D12EFF303505AE00FF303605AF00FF301D
:100D78003705B0007F303805B100310830042F0442
:100D88002E040319C82EC92ECC2EB401B40AD12EB4
:100D98003A1CCF2ED02ED12EC92E34080319D52EA9
:100DA800D62E072F0130BA07003003180130BB07D1
:100DB800003003180130BC07003003180130BD07AC
:100DC8003D1CE72EE82E072F3A08AE003B08AF007F
:100DD8003C08B0003D08B1000130B200310DB10C43
:100DE800B00CAF0CAE0CB20BF22E3108BD003008BF
:100DF800BC002F08BB002E08BA000130BE0703183C
:100E0800BF0A0030BF073F08803AFF0080307F02EA
:100E1800031D102FFF303E02031C132F142F1F2F0A
:100E28007F3083120313BD008030BC000030BB004C
:100E38000030BA00502F831203133F08803AFF0096
:100E480080307F02031D2A2F01303E0203182D2F08
:100E58002E2F3A2F003083120313BD000030BC0040
:100E68000030BB000030BA00B301502F83120313C7
:100E78003E08B900FF30BA05FF30BB057F30BC051E
:100E88000030BD05391C492F4A2F4B2FBC17390894
:100E9800AE0003102E0CBD003308FF007F08BD0410
:100EA8003D08A9003C08A8003B08A7003A08A6008E
:100EB800080083120313A201F51F632F642F712FFB
:100EC800F209F309F409F509F20A0319F30A0319F7
:100ED800F40A0319F50AA201A20AF91F742F752F43
:100EE800842FF609F709F809F909F60A0319F70A28
:100EF8000319F80A0319F90A0130FF007F08A2064E
:100F08000030A6000030A5000030A4000030A30087
:100F180075087404730472040319932F942FE12F36
:100F2800A101A10AA42F0130A0000310F20DF30DB6
:100F3800F40DF50DA00B992F0130FF007F08A107D4
:100F4800F51FA72FA82F972F0130A0000310A30D7E
:100F5800A40DA50DA60DA00BAA2F75087902031DD7
:100F6800BF2F74087802031DBF2F73087702031D73
:100F7800BF2F72087602031CC22FC32FD22F72080C
:100F8800F6027308031C730FF7027408031C740F2E
:100F9800F8027508031C750FF902231401300310B9
:100FA800F50CF40CF30CF20CFF3E031DD32F0130AB
:100FB800A102031DE02FE12FA82F22080319E52F16
:100FC800E62FF12FA309A409A509A609A30A031965
:100FD800A40A0319A50A0319A60A2608F500250874
:100FE800F4002408F3002308F2000800FF34FF345B
:060FF80000340234013454
:10100000831203130C1E0528062800280C127208F0
:101010009900080083120313A501A31F10281128AB
:101020001828A209A309A20A0319A30AA501A50A5F
:10103000A11F1B281C282128A009A109A00A031907
:10104000A10A200821040319262827285628A401CC
:10105000A40A352801300310A00DA10DFF3E031D89
:101060002B280130FF007F08A407A11F382839284A
:101070002A2821082302031D3F2820082202031CDE
:101080004228432849282008A2022108031CA30360
:10109000A30201300310A10CA00CFF3E031D4A283F
:1010A0000130A402031D55285628392825080319A4
:1010B0005A285B286028A209A309A20A0319A30AD7
:1010C0002308A1002208A0000800F701F31F6928E7
:1010D0006A287128F209F309F20A0319F30AF701E1
:1010E000F70AF51F742875287E28F409F509F40A13
:1010F0000319F50A0130FF007F08F706F801F9012E
:1011000072087304031985288628BD28F601F60A9B
:10111000942801300310F20DF30DFF3E031D8A28C1
:101120000130FF007F08F607F31F972898288928C9
:1011300001300310F80DF90DFF3E031D99287308C7
:101140007502031DA52872087402031CA828A9288B
:10115000B0287208F4027308031CF503F502781432
:1011600001300310F30CF20CFF3E031DB1280130D7
:10117000F602031DBC28BD28982877080319C1284A
:10118000C228C728F809F909F80A0319F90A7908E1
:10119000F3007808F2000800031083120313420DD5
:1011A000430DC9004908031DD628D728E028003080
:1011B000C3000030C2000030C1000030C00043292D
:1011C0004008C4004108C5004208C6004308C700E3
:1011D0001F300310C70CC60CC50CC40CFF3E031D0A
:1011E000E9284408C800C217FF30C005FF30C10518
:1011F000FF30C2050030C3059630C902C91F01295E
:1012000002291C294908803A973E03180829092910
:101210000A29D72801300310C30CC20CC10CC00C22
:10122000FF3E031D0B290130FF007F08C907031D86
:101230001A291B290A29332920304902031C212994
:1012400022292E29D7280130C4000310C00DC10D5A
:10125000C20DC30DC40B25290130C9024908031D65
:1012600032293329232948080319372938294329E2
:10127000C009C109C209C309C00A0319C10A031977
:10128000C20A0319C30A0800831203132708AA001D
:101290002608A9000130AB000030AC0075290A30E7
:1012A000F2000030F3002A08F5002908F4000A16BD
:1012B0008A11BC270A128A15730883120313AA0025
:1012C0007208A9000A30A0000030A1002C08A30079
:1012D0002B08A2000A168A1105270A128A15831202
:1012E00003132108AC002008AB0000302A020A30AA
:1012F0000319290203187D297E294F29BB290A30A9
:10130000A0000030A1002C08F3002B08F2002708F1
:10131000F5002608F4000A168A11BC270A128A155D
:10132000730883120313A3007208A2000A168A111D
:1013300080270A128A15831203132008A8002808A0
:10134000303E0A128A15C2210A128A150A30F200AA
:101350000030F300831203132C08F5002B08F4006F
:101360000A168A11BC270A128A15730883120313FE
:10137000AC007208AB002B082C04031DC029C12946
:101380007F290800F4007408F20004300310F20C06
:10139000FF3E031DC6297218CE29D22983120313DA
:1013A0000615D5298312031306117408F2000530BF
:1013B0000310F20CFF3E031DD8297218E029E4291E
:1013C000831203138615E729831203138611740809
:1013D000F20006300310F20CFF3E031DEA297218DA
:1013E000F229F629831203130616F929831203132F
:1013F00006127408F20007300310F20CFF3E031DC2
:10140000FC297218042A082A8312031386160B2A51
:10141000831203138612861488170D30F300FB30F5
:10142000F200F20B112AF30B112A162A831203136E
:10143000861074181C2A202A831203130615232AE7
:101440008312031306117408F20001300310F20C2A
:10145000FF3E031D262A72182E2A322A83120313F6
:101460008615352A8312031386117408F2000230A0
:101470000310F20CFF3E031D382A7218402A442A3A
:10148000831203130616472A8312031306127408E5
:10149000F20003300310F20CFF3E031D4A2A7218BB
:1014A000522A562A831203138616592A83120313CB
:1014B0008612861488170D30F300FB30F200F20B11
:1014C0005F2AF30B5F2A642A831203138610080035
:1014D000F4007408F20004300310F20CFF3E031D08
:1014E0006C2A7218742A782A8312031306157B2A31
:1014F0008312031306117408F20005300310F20C76
:10150000FF3E031D7E2A7218862A8A2A831203133D
:1015100086158D2A8312031386117408F200063093
:101520000310F20CFF3E031D902A7218982A9C2A81
:101530008312031306169F2A8312031306127408DC
:10154000F20007300310F20CFF3E031DA22A7218AE
:10155000AA2AAE2A831203138616B12A8312031312
:101560008612861488130D30F300FB30F200F20B64
:10157000B72AF30BB72ABC2A8312031386107418F8
:10158000C22AC62A831203130615C92A831203131B
:1015900006117408F20001300310F20CFF3E031D27
:1015A000CC2A7218D42AD82A831203138615DB2A70
:1015B0008312031386117408F20002300310F20C38
:1015C000FF3E031DDE2A7218E62AEA2A831203135D
:1015D0000616ED2A8312031306127408F200033074
:1015E0000310F20CFF3E031DF02A7218F82AFC2AA1
:1015F000831203138616FF2A83120313861286149E
:1016000088130D30F300FB30F200F20B052BF30BC7
:10161000052B0A2B83120313861008008312031371
:10162000A00020080319152B162B2A2BF51F192BA8
:101630001A2B2A2B7209A2007309A3007409A400B3
:101640007509A500A20A0319A30A0319A40A03191C
:10165000A50A322B7508A5007408A4007308A3001E
:101660007208A2007508740473047204031D392BF8
:101670003A2B432B0030F5000030F4000030F3002B
:101680000030F200C72B9630A100532B0130FF0031
:101690007F08A10701300310A50CA40CA30CA20C19
:1016A000FF3E031D4B2BFE302505031D582B592BE8
:1016B000462B752B0130FF007F08A1070130A207E0
:1016C000003003180130A307003003180130A407CD
:1016D000003003180130A50701300310A50CA40C3D
:1016E000A30CA20CFF3E031D6D2BFF302505031D2F
:1016F0007A2B7B2B5A2B872B0130A1020130F6006D
:101700000310A20DA30DA40DA50DF60B802BA41B99
:101710008A2B8B2B912B023021020318902B912BBB
:101720007C2B2118942B952B9D2BFF30A205FF308D
:10173000A3057F30A405FF30A5050310A10C2108E7
:10174000F600F701F801F90118300310F60DF70D56
:10175000F80DF90DFF3E031DA52B7608A2047708AE
:10176000A3047808A4047908A50420080319B92B58
:10177000BA2BBF2BF51FBD2BBE2BBF2BA5172508E2
:10178000F5002408F4002308F3002208F200080002
:101790007908803983120313A9007908A000200773
:1017A000B000F81FD42BD52BD62B301430080319DA
:1017B000DA2BDB2BEB2B300A031DDF2BE02BE82B86
:1017C0000030F9000030F8000030F7000030F6007B
:1017D000F817F901F32B0030F9000030F800003061
:1017E000F7000030F60075088039FF007F08A90671
:1017F0007508A0002007B100F41FFF2B002C012C5E
:10180000311431080319052C062C162C310A031D3E
:101810000A2C0B2C132C0030F5000030F4000030A3
:10182000F3000030F200F417F5011E2C0030F50033
:101830000030F4000030F3000030F200750874044A
:1018400073047204031D252C262C3F2C0030F90054
:101850000030F8000030F7000030F6008030F80467
:101860007F30F9042908FF007F08F9047908F500A2
:101870007808F4007708F3007608F2009C2D300811
:10188000031D432C442C4D2C0030F5000030F40097
:101890000030F3000030F2009C2D3008A000A101C0
:1018A0002108A30031082002A200031CA303220880
:1018B0007F3EAA0023080318013E003EAB007908D2
:1018C000A8007808A7007708A6007608A5000030D1
:1018D000F9000030F8000030F7000030F60000306A
:1018E000AF000030AE000030AD000030AC00B10100
:1018F000C92C310803197D2C7E2C9E2C0130A000B0
:101900000310A50DA60DA70DA80DA00B802C01306E
:10191000A0000310F60DF70DF80DF90DA00B892CA2
:10192000AF1F932C942C952C76140130A00003103B
:10193000AC0DAD0DAE0DAF0DA00B972C75082802A8
:10194000031DAC2C74082702031DAC2C730826025F
:10195000031DAC2C72082502031CAF2CB02CC52C27
:101960002F177208A5027308031C730FB82CB92C2B
:10197000A6027408031C740FBE2CBF2CA7027508A6
:10198000031C750FC42CC52CA8020130FF007F0872
:10199000B1071A303102031CCE2CCF2C792C280829
:1019A0002704260425040319D62CD72CF62C2C1436
:1019B000F62C0130A0000310F60DF70DF80DF90D0F
:1019C000A00BDB2CAF1FE52CE62CE72C76140130A6
:1019D000A0000310AC0DAD0DAE0DAF0DA00BE92CAA
:1019E000FF30AA070318AB0AFF30AB07F81FF92C2A
:1019F000FA2CD92CB101AF1FFE2CFF2C1B2DFF3070
:101A00002C05A000FF302D05A100FF302E05A200FF
:101A10007F302F05A300230822042104200403198A
:101A2000122D132D162DB101B10A1B2D761C192D67
:101A30001A2D1B2D132D310803191F2D202D512D6B
:101A40000130F607003003180130F70700300318A3
:101A50000130F807003003180130F907791C312DE7
:101A6000322D512D7608A0007708A1007808A20039
:101A70007908A3000130A400230DA30CA20CA10C33
:101A8000A00CA40B3C2D2308F9002208F800210823
:101A9000F7002008F6000130AA070318AB0A00304F
:101AA000AB072B08803AFF0080307F02031D5A2DC0
:101AB000FF302A02031C5D2D5E2D6C2DFF3083123A
:101AC0000313AA000030AB000030F9000030F8002A
:101AD0000030F7000030F600831203132B08803A21
:101AE000FF0080307F02031D772D01302A0203188A
:101AF0007A2D7B2D882D83120313AA01AB010030B0
:101B0000F9000030F8000030F7000030F600A901BD
:101B1000831203132A08B000301C8F2D902D922DB4
:101B2000F817962D7F30FF007F08F8053008A000D9
:101B30000310200CF900322C08008312031328082C
:101B4000E8002708E7000230E307003003180130FF
:101B5000E407003003180130E507003003180130B6
:101B6000E607831603133408831203136302B100DC
:101B7000831603133508031C350A8312031364020A
:101B8000B2006808803AA9006F08803A2902031D54
:101B9000CB2D6E0867020318CE2DCF2D132E0530E6
:101BA000F2000030F300831203136D08F5006C0897
:101BB000F4000A128A1565200A128A157308831226
:101BC0000313A1007208A0000330A2000030A3009C
:101BD0000A168A1105270A128A158312031321088F
:101BE000803AA9003208803A2902031DF92D3108F4
:101BF00020020318FC2DFD2D132E831203136808F9
:101C0000803AA9007B08803A2902031D092E7A0830
:101C1000670203180C2E0D2E132E8312031368086F
:101C2000FB006708FA00831203136F08803AA900CB
:101C30006808803A2902031D1F2E67086E020318E8
:101C4000222E232E432E831603134708803A831235
:101C50000313A9006808803A2902031D332E670880
:101C60008316031346020318362E372E432E831293
:101C70000313680883160313C7008312031367084E
:101C800083160313C600831203133208803AFF0041
:101C900080307F02031D4E2EFB303102031C512E7B
:101CA000522E7C2F831203136F08803AA900680814
:101CB000803A2902031D5E2E67086E020318612E0A
:101CC000622E7C2F831203136B08031D682E692E6E
:101CD0007C2F0530F2000030F3006D08F5006C0831
:101CE000F4000A128A1565200A128A1573088312F5
:101CF0000313A1007208A0000330A2000030A3006B
:101D00000A168A1105270A128A158312031321085D
:101D1000803AA9003208803A2902031D912E310829
:101D200020020318942E952E7C2F0130831203136A
:101D3000EB00831603133408831203136302EC00D1
:101D4000831603133508031C350A83120313640238
:101D5000ED00660883160313B700831203136508AA
:101D600083160313B6008312031364088316031348
:101D7000B50083120313630883160313B4004308EA
:101D80000319C32EC42EE92EC30183120313AF011E
:101D9000B001831203132F08A9002907A03E840075
:101DA0006C0883138000840A6D0880000130AF073F
:101DB0000318B00A0030B0073008803AFF008030C6
:101DC0007F02031DE52E0A302F02031CE82EE92EA8
:101DD000C92E8316031348080319EF2EF02EF42E94
:101DE000C8010130C300FF2F83120313AD01AE0100
:101DF000B301B401831203133308A9002907A23EDB
:101E0000840083130008AA00840A0008AB0033088A
:101E1000AC002C07A03E84002A088000840A2B080E
:101E200080003308A9002907A03E84000008AA000A
:101E3000840A0008AB002A08AD070318AE0A2B0875
:101E4000AE070130B3070318B40A0030B4073408F2
:101E5000803AFF0080307F02031D302F09303302AB
:101E6000031C332F342FFA2E831203136D088316AD
:101E70000313B300831203136C0883160313B20019
:101E8000320883120313AD070318AE0A8316031337
:101E9000330883120313AE070A30F2000030F30058
:101EA0002E08F5002D08F4000A168A11BC270A1224
:101EB0008A15730883120313AE007208AD002D0853
:101EC000F2002E08F300F401F5010030F9000030B3
:101ED000F800EA30F7006030F6000A128A115D2738
:101EE0000A128A15730883120313EA007208E900C4
:101EF000013083160313C200831203136808803A6B
:101F0000A9006F08803A2902031D882F6E08670216
:101F100003188B2F8C2FC52F831203136B03031D04
:101F2000922F932FC52FEB017A08831603134602D5
:101F3000C0007B08031C7B0A4702C1000230F2008C
:101F40000030F3004108F5004008F4000A128A1539
:101F500065200A128A157A08720783120313EE00AD
:101F60007B0803187B0A7307EF006F0883160313BF
:101F7000C700831203136E0883160313C60083126F
:101F800003136F08FB006E08FA0083120313320874
:101F9000803AFF0089307F02031DD02FC530310207
:101FA000031CD32FD42FFF2F123083120313EE0004
:101FB0000230EF00003083160313C6000230C70062
:101FC0000030FA000230FB00831203136608831608
:101FD0000313B70083120313650883160313B600B7
:101FE00083120313640883160313B50083120313CB
:101FF000630883160313B4000130C800C30108004E
:1020000010308A000408840A82070034FF34423406
:1020100050344D343A342D3420342034203420349C
:1020200020340034483445344C344C344F3421345B
:10203000213421340034543465346D3470343A34EE
:0C204000203400342E34003443340034CB
:102C1C008B16080000340234583402341234023457
:102C2C00013083160313C4000030C5000800640093
:102C3C008001840A04060319003404061E2E413058
:102C4C00831203139F00C030831603139F000800E8
:102C5C008B170B1783160313811201168111073082
:102C6C0081047A308312031381000B110B16831627
:102C7C000313011708007E088A007F0882000A16D9
:102C8C008A1141260A168A118000840A04087D06DE
:102C9C0003190034FF0A0319FE0A452E8B1E572E0A
:102CAC00582E612E0B1D5B2E5C2E612E0A168A117E
:102CBC007C260A168A1171088A00700E8300FE0E9B
:102CCC007E0E09008316031307138717181183123E
:102CDC000313181683160313181298168312031372
:102CEC0098171F3083160313990008008B120B11D1
:102CFC007A30831203138100013083160313B80753
:102D0C000318B90A0030B9073808390403198F2E93
:102D1C00902E992E0A168A1116260A168A118316D7
:102D2C000313B801B9018B160800F500AD2E750818
:102D3C0084000A168A1100200A168A110A128A15B2
:102D4C00C2210A168A110130FF007F08F5077508A9
:102D5C0084000A168A1100200A168A11003A031DF3
:102D6C00B82EB92E9D2E080033300A128A1568220F
:102D7C000A168A1132300A128A1568220A168A112A
:102D8C0028300A128A1568220A168A110C300A1287
:102D9C008A1568220A168A1106300A128A156822C8
:102DAC000A168A1101300A128A1568220A168A112B
:102DBC0008008316031388138610861006118611DB
:102DCC000612861205140A168A11BA260A168A11D8
:102DDC000A168A1168260A168A110A168A112526DD
:102DEC000A168A110A168A112E260A168A110A1632
:102DFC008A110E260A168A118B170B1708008312DC
:102E0C000313A401A501201C0C2F0D2F132F220836
:102E1C00A4070318A50A2308A50701300310A20D67
:102E2C00A30DFF3E031D142F01300310A10CA00CA9
:102E3C00FF3E031D1B2F20082104031D262F272FC7
:102E4C00092F2508A1002408A000080083120313F1
:102E5C00A400A001A1017208F400F5017408A200FD
:102E6C007508A300241C3B2F3C2F422F2208A007DF
:102E7C000318A10A2308A10701300310A20DA30D0A
:102E8C00FF3E031D432F0310A40C2408031D4F2FDA
:102E9C00502F382F2108F3002008F2000800F6000C
:102EAC000130FF007F08831203139F057608F4009E
:102EBC0002300310F40DFF3E031D5F2F0310740D41
:102ECC00FF007F089F040D30F500FB30F400F40B7D
:102EDC006D2FF50B6D2F722F831203131F151F19F6
:102EEC00782F792F752F1E08F300831603131E08F5
:102EFC00F200080083120313200821040319872F02
:102F0C00882FB72FF901F90A962F01300310A00D65
:102F1C00A10DFF3E031D8C2F0130FF007F08F90728
:102F2C00A11F992F9A2F8B2F21082302031DA02F4D
:102F3C0020082202031CA32FA42FAA2F2008A202D0
:102F4C002108031CA303A30201300310A10CA00C45
:102F5C00FF3E031DAB2F0130F902031DB62FB72F17
:102F6C009A2F2308A1002208A0000800F601F701FF
:102F7C00720873040319C32FC42FFB2FF801F80A2E
:102F8C00D22F01300310F20DF30DFF3E031DC82F9D
:102F9C000130FF007F08F807F31FD52FD62FC72F5E
:102FAC0001300310F60DF70DFF3E031DD72F7308EC
:102FBC007502031DE32F72087402031CE62FE72F22
:102FCC00EE2F7208F4027308031CF503F502761455
:102FDC0001300310F30CF20CFF3E031DEF2F0130F8
:102FEC00F802031DFA2FFB2FD62F7708F300760873
:042FFC00F2000800D7
:02400E007A3FF7
:00000001FF
